{
  "_format": "hh-sol-artifact-1",
  "contractName": "DynamicSvgNft",
  "sourceName": "contracts/DynamicSvgNft.sol",
  "abi": [
    {
      "inputs": [
        {
          "internalType": "address",
          "name": "priceFeedAddress",
          "type": "address"
        },
        {
          "internalType": "string",
          "name": "lowSvg",
          "type": "string"
        },
        {
          "internalType": "string",
          "name": "highSvg",
          "type": "string"
        }
      ],
      "stateMutability": "nonpayable",
      "type": "constructor"
    },
    {
      "anonymous": false,
      "inputs": [
        {
          "indexed": true,
          "internalType": "address",
          "name": "owner",
          "type": "address"
        },
        {
          "indexed": true,
          "internalType": "address",
          "name": "approved",
          "type": "address"
        },
        {
          "indexed": true,
          "internalType": "uint256",
          "name": "tokenId",
          "type": "uint256"
        }
      ],
      "name": "Approval",
      "type": "event"
    },
    {
      "anonymous": false,
      "inputs": [
        {
          "indexed": true,
          "internalType": "address",
          "name": "owner",
          "type": "address"
        },
        {
          "indexed": true,
          "internalType": "address",
          "name": "operator",
          "type": "address"
        },
        {
          "indexed": false,
          "internalType": "bool",
          "name": "approved",
          "type": "bool"
        }
      ],
      "name": "ApprovalForAll",
      "type": "event"
    },
    {
      "anonymous": false,
      "inputs": [
        {
          "indexed": true,
          "internalType": "uint256",
          "name": "tokenId",
          "type": "uint256"
        },
        {
          "indexed": false,
          "internalType": "int256",
          "name": "highValue",
          "type": "int256"
        }
      ],
      "name": "CreatedNFT",
      "type": "event"
    },
    {
      "anonymous": false,
      "inputs": [
        {
          "indexed": true,
          "internalType": "address",
          "name": "from",
          "type": "address"
        },
        {
          "indexed": true,
          "internalType": "address",
          "name": "to",
          "type": "address"
        },
        {
          "indexed": true,
          "internalType": "uint256",
          "name": "tokenId",
          "type": "uint256"
        }
      ],
      "name": "Transfer",
      "type": "event"
    },
    {
      "inputs": [
        {
          "internalType": "address",
          "name": "to",
          "type": "address"
        },
        {
          "internalType": "uint256",
          "name": "tokenId",
          "type": "uint256"
        }
      ],
      "name": "approve",
      "outputs": [],
      "stateMutability": "nonpayable",
      "type": "function"
    },
    {
      "inputs": [
        {
          "internalType": "address",
          "name": "owner",
          "type": "address"
        }
      ],
      "name": "balanceOf",
      "outputs": [
        {
          "internalType": "uint256",
          "name": "",
          "type": "uint256"
        }
      ],
      "stateMutability": "view",
      "type": "function"
    },
    {
      "inputs": [
        {
          "internalType": "uint256",
          "name": "tokenId",
          "type": "uint256"
        }
      ],
      "name": "getApproved",
      "outputs": [
        {
          "internalType": "address",
          "name": "",
          "type": "address"
        }
      ],
      "stateMutability": "view",
      "type": "function"
    },
    {
      "inputs": [
        {
          "internalType": "address",
          "name": "owner",
          "type": "address"
        },
        {
          "internalType": "address",
          "name": "operator",
          "type": "address"
        }
      ],
      "name": "isApprovedForAll",
      "outputs": [
        {
          "internalType": "bool",
          "name": "",
          "type": "bool"
        }
      ],
      "stateMutability": "view",
      "type": "function"
    },
    {
      "inputs": [
        {
          "internalType": "int256",
          "name": "highValue",
          "type": "int256"
        }
      ],
      "name": "mintNft",
      "outputs": [],
      "stateMutability": "nonpayable",
      "type": "function"
    },
    {
      "inputs": [],
      "name": "name",
      "outputs": [
        {
          "internalType": "string",
          "name": "",
          "type": "string"
        }
      ],
      "stateMutability": "view",
      "type": "function"
    },
    {
      "inputs": [
        {
          "internalType": "uint256",
          "name": "tokenId",
          "type": "uint256"
        }
      ],
      "name": "ownerOf",
      "outputs": [
        {
          "internalType": "address",
          "name": "",
          "type": "address"
        }
      ],
      "stateMutability": "view",
      "type": "function"
    },
    {
      "inputs": [
        {
          "internalType": "uint256",
          "name": "",
          "type": "uint256"
        }
      ],
      "name": "s_tokenIdToHighValue",
      "outputs": [
        {
          "internalType": "int256",
          "name": "",
          "type": "int256"
        }
      ],
      "stateMutability": "view",
      "type": "function"
    },
    {
      "inputs": [
        {
          "internalType": "address",
          "name": "from",
          "type": "address"
        },
        {
          "internalType": "address",
          "name": "to",
          "type": "address"
        },
        {
          "internalType": "uint256",
          "name": "tokenId",
          "type": "uint256"
        }
      ],
      "name": "safeTransferFrom",
      "outputs": [],
      "stateMutability": "nonpayable",
      "type": "function"
    },
    {
      "inputs": [
        {
          "internalType": "address",
          "name": "from",
          "type": "address"
        },
        {
          "internalType": "address",
          "name": "to",
          "type": "address"
        },
        {
          "internalType": "uint256",
          "name": "tokenId",
          "type": "uint256"
        },
        {
          "internalType": "bytes",
          "name": "data",
          "type": "bytes"
        }
      ],
      "name": "safeTransferFrom",
      "outputs": [],
      "stateMutability": "nonpayable",
      "type": "function"
    },
    {
      "inputs": [
        {
          "internalType": "address",
          "name": "operator",
          "type": "address"
        },
        {
          "internalType": "bool",
          "name": "approved",
          "type": "bool"
        }
      ],
      "name": "setApprovalForAll",
      "outputs": [],
      "stateMutability": "nonpayable",
      "type": "function"
    },
    {
      "inputs": [
        {
          "internalType": "bytes4",
          "name": "interfaceId",
          "type": "bytes4"
        }
      ],
      "name": "supportsInterface",
      "outputs": [
        {
          "internalType": "bool",
          "name": "",
          "type": "bool"
        }
      ],
      "stateMutability": "view",
      "type": "function"
    },
    {
      "inputs": [
        {
          "internalType": "string",
          "name": "svg",
          "type": "string"
        }
      ],
      "name": "svgToImageURI",
      "outputs": [
        {
          "internalType": "string",
          "name": "",
          "type": "string"
        }
      ],
      "stateMutability": "pure",
      "type": "function"
    },
    {
      "inputs": [],
      "name": "symbol",
      "outputs": [
        {
          "internalType": "string",
          "name": "",
          "type": "string"
        }
      ],
      "stateMutability": "view",
      "type": "function"
    },
    {
      "inputs": [
        {
          "internalType": "uint256",
          "name": "tokenId",
          "type": "uint256"
        }
      ],
      "name": "tokenURI",
      "outputs": [
        {
          "internalType": "string",
          "name": "",
          "type": "string"
        }
      ],
      "stateMutability": "view",
      "type": "function"
    },
    {
      "inputs": [
        {
          "internalType": "address",
          "name": "from",
          "type": "address"
        },
        {
          "internalType": "address",
          "name": "to",
          "type": "address"
        },
        {
          "internalType": "uint256",
          "name": "tokenId",
          "type": "uint256"
        }
      ],
      "name": "transferFrom",
      "outputs": [],
      "stateMutability": "nonpayable",
      "type": "function"
    }
  ],
  "bytecode": "0x60a06040523480156200001157600080fd5b5060405162003693380380620036938339818101604052810190620000379190620004e2565b6040518060400160405280601481526020017f4d792062656175746966756c20737667206e66740000000000000000000000008152506040518060400160405280600481526020017f6d62736e000000000000000000000000000000000000000000000000000000008152508160009080519060200190620000bb9291906200039d565b508060019080519060200190620000d49291906200039d565b5050506000600681905550620000f0826200017160201b60201c565b60079080519060200190620001079291906200039d565b5062000119816200017160201b60201c565b60089080519060200190620001309291906200039d565b508273ffffffffffffffffffffffffffffffffffffffff1660808173ffffffffffffffffffffffffffffffffffffffff1660601b815250505050506200093a565b60606000620001ac836040516020016200018c9190620005b3565b6040516020818303038152906040526200020f60201b62000d211760201c565b90506040518060400160405280601a81526020017f646174613a696d6167652f7376672b786d6c3b6261736536342c00000000000081525081604051602001620001f8929190620005cc565b604051602081830303815290604052915050919050565b6060600082511415620002345760405180602001604052806000815250905062000398565b600060405180606001604052806040815260200162003653604091399050600060036002855162000266919062000669565b620002729190620006c6565b6004620002809190620006fe565b9050600060208262000293919062000669565b67ffffffffffffffff811115620002af57620002ae620008cc565b5b6040519080825280601f01601f191660200182016040528015620002e25781602001600182028036833780820191505090505b509050818152600183018586518101602084015b8183101562000353576003830192508251603f8160121c168501518253600182019150603f81600c1c168501518253600182019150603f8160061c168501518253600182019150603f8116850151825360018201915050620002f6565b60038951066001811462000370576002811462000381576200038c565b613d3d60f01b60028303526200038c565b603d60f81b60018303525b50505050508093505050505b919050565b828054620003ab90620007d3565b90600052602060002090601f016020900481019282620003cf57600085556200041b565b82601f10620003ea57805160ff19168380011785556200041b565b828001600101855582156200041b579182015b828111156200041a578251825591602001919060010190620003fd565b5b5090506200042a91906200042e565b5090565b5b80821115620004495760008160009055506001016200042f565b5090565b6000620004646200045e846200061d565b620005f4565b90508281526020810184848401111562000483576200048262000900565b5b620004908482856200079d565b509392505050565b600081519050620004a98162000920565b92915050565b600082601f830112620004c757620004c6620008fb565b5b8151620004d98482602086016200044d565b91505092915050565b600080600060608486031215620004fe57620004fd6200090a565b5b60006200050e8682870162000498565b935050602084015167ffffffffffffffff81111562000532576200053162000905565b5b6200054086828701620004af565b925050604084015167ffffffffffffffff81111562000564576200056362000905565b5b6200057286828701620004af565b9150509250925092565b6000620005898262000653565b6200059581856200065e565b9350620005a78185602086016200079d565b80840191505092915050565b6000620005c182846200057c565b915081905092915050565b6000620005da82856200057c565b9150620005e882846200057c565b91508190509392505050565b60006200060062000613565b90506200060e828262000809565b919050565b6000604051905090565b600067ffffffffffffffff8211156200063b576200063a620008cc565b5b62000646826200090f565b9050602081019050919050565b600081519050919050565b600081905092915050565b6000620006768262000793565b9150620006838362000793565b9250827fffffffffffffffffffffffffffffffffffffffffffffffffffffffffffffffff03821115620006bb57620006ba6200083f565b5b828201905092915050565b6000620006d38262000793565b9150620006e08362000793565b925082620006f357620006f26200086e565b5b828204905092915050565b60006200070b8262000793565b9150620007188362000793565b9250817fffffffffffffffffffffffffffffffffffffffffffffffffffffffffffffffff04831182151516156200075457620007536200083f565b5b828202905092915050565b60006200076c8262000773565b9050919050565b600073ffffffffffffffffffffffffffffffffffffffff82169050919050565b6000819050919050565b60005b83811015620007bd578082015181840152602081019050620007a0565b83811115620007cd576000848401525b50505050565b60006002820490506001821680620007ec57607f821691505b602082108114156200080357620008026200089d565b5b50919050565b62000814826200090f565b810181811067ffffffffffffffff82111715620008365762000835620008cc565b5b80604052505050565b7f4e487b7100000000000000000000000000000000000000000000000000000000600052601160045260246000fd5b7f4e487b7100000000000000000000000000000000000000000000000000000000600052601260045260246000fd5b7f4e487b7100000000000000000000000000000000000000000000000000000000600052602260045260246000fd5b7f4e487b7100000000000000000000000000000000000000000000000000000000600052604160045260246000fd5b600080fd5b600080fd5b600080fd5b600080fd5b6000601f19601f8301169050919050565b6200092b816200075f565b81146200093757600080fd5b50565b60805160601c612cfa620009596000396000610a3a0152612cfa6000f3fe608060405234801561001057600080fd5b50600436106101005760003560e01c80636352211e11610097578063b88d4fde11610066578063b88d4fde146102bd578063c87b56dd146102d9578063e425aded14610309578063e985e9c51461033957610100565b80636352211e1461022357806370a082311461025357806395d89b4114610283578063a22cb465146102a157610100565b80631e930812116100d35780631e9308121461019f57806323b872dd146101bb57806330d871c6146101d757806342842e0e1461020757610100565b806301ffc9a71461010557806306fdde0314610135578063081812fc14610153578063095ea7b314610183575b600080fd5b61011f600480360381019061011a9190611cf5565b610369565b60405161012c919061224b565b60405180910390f35b61013d61044b565b60405161014a9190612281565b60405180910390f35b61016d60048036038101906101689190611dc5565b6104dd565b60405161017a91906121e4565b60405180910390f35b61019d60048036038101906101989190611cb5565b610523565b005b6101b960048036038101906101b49190611d4f565b61063b565b005b6101d560048036038101906101d09190611b9f565b6106b3565b005b6101f160048036038101906101ec9190611d7c565b610713565b6040516101fe9190612281565b60405180910390f35b610221600480360381019061021c9190611b9f565b6107a0565b005b61023d60048036038101906102389190611dc5565b6107c0565b60405161024a91906121e4565b60405180910390f35b61026d60048036038101906102689190611b32565b610872565b60405161027a9190612403565b60405180910390f35b61028b61092a565b6040516102989190612281565b60405180910390f35b6102bb60048036038101906102b69190611c75565b6109bc565b005b6102d760048036038101906102d29190611bf2565b6109d2565b005b6102f360048036038101906102ee9190611dc5565b610a34565b6040516103009190612281565b60405180910390f35b610323600480360381019061031e9190611dc5565b610c75565b6040516103309190612266565b60405180910390f35b610353600480360381019061034e9190611b5f565b610c8d565b604051610360919061224b565b60405180910390f35b60007f80ac58cd000000000000000000000000000000000000000000000000000000007bffffffffffffffffffffffffffffffffffffffffffffffffffffffff1916827bffffffffffffffffffffffffffffffffffffffffffffffffffffffff1916148061043457507f5b5e139f000000000000000000000000000000000000000000000000000000007bffffffffffffffffffffffffffffffffffffffffffffffffffffffff1916827bffffffffffffffffffffffffffffffffffffffffffffffffffffffff1916145b80610444575061044382610e9a565b5b9050919050565b60606000805461045a906126d3565b80601f0160208091040260200160405190810160405280929190818152602001828054610486906126d3565b80156104d35780601f106104a8576101008083540402835291602001916104d3565b820191906000526020600020905b8154815290600101906020018083116104b657829003601f168201915b5050505050905090565b60006104e882610f04565b6004600083815260200190815260200160002060009054906101000a900473ffffffffffffffffffffffffffffffffffffffff169050919050565b600061052e826107c0565b90508073ffffffffffffffffffffffffffffffffffffffff168373ffffffffffffffffffffffffffffffffffffffff16141561059f576040517f08c379a0000000000000000000000000000000000000000000000000000000008152600401610596906123c3565b60405180910390fd5b8073ffffffffffffffffffffffffffffffffffffffff166105be610f4f565b73ffffffffffffffffffffffffffffffffffffffff1614806105ed57506105ec816105e7610f4f565b610c8d565b5b61062c576040517f08c379a000000000000000000000000000000000000000000000000000000000815260040161062390612363565b60405180910390fd5b6106368383610f57565b505050565b8060096000600654815260200190815260200160002081905550600160065461066491906124e8565b60068190555061067633600654611010565b6006547f882d3b5a729a8bb95cf6c0083c99b42ecd9637123d4425bd7b768877fd8af8b0826040516106a89190612266565b60405180910390a250565b6106c46106be610f4f565b8261102e565b610703576040517f08c379a00000000000000000000000000000000000000000000000000000000081526004016106fa906123e3565b60405180910390fd5b61070e8383836110c3565b505050565b6060600061073f8360405160200161072b9190612159565b604051602081830303815290604052610d21565b90506040518060400160405280601a81526020017f646174613a696d6167652f7376672b786d6c3b6261736536342c00000000000081525081604051602001610789929190612170565b604051602081830303815290604052915050919050565b6107bb838383604051806020016040528060008152506109d2565b505050565b6000806002600084815260200190815260200160002060009054906101000a900473ffffffffffffffffffffffffffffffffffffffff169050600073ffffffffffffffffffffffffffffffffffffffff168173ffffffffffffffffffffffffffffffffffffffff161415610869576040517f08c379a0000000000000000000000000000000000000000000000000000000008152600401610860906123a3565b60405180910390fd5b80915050919050565b60008073ffffffffffffffffffffffffffffffffffffffff168273ffffffffffffffffffffffffffffffffffffffff1614156108e3576040517f08c379a00000000000000000000000000000000000000000000000000000000081526004016108da90612343565b60405180910390fd5b600360008373ffffffffffffffffffffffffffffffffffffffff1673ffffffffffffffffffffffffffffffffffffffff168152602001908152602001600020549050919050565b606060018054610939906126d3565b80601f0160208091040260200160405190810160405280929190818152602001828054610965906126d3565b80156109b25780601f10610987576101008083540402835291602001916109b2565b820191906000526020600020905b81548152906001019060200180831161099557829003601f168201915b5050505050905090565b6109ce6109c7610f4f565b838361132a565b5050565b6109e36109dd610f4f565b8361102e565b610a22576040517f08c379a0000000000000000000000000000000000000000000000000000000008152600401610a19906123e3565b60405180910390fd5b610a2e84848484611497565b50505050565b606060007f000000000000000000000000000000000000000000000000000000000000000073ffffffffffffffffffffffffffffffffffffffff1663feaf968c6040518163ffffffff1660e01b815260040160a06040518083038186803b158015610a9e57600080fd5b505afa158015610ab2573d6000803e3d6000fd5b505050506040513d601f19601f82011682018060405250810190610ad69190611df2565b505050915050600060078054610aeb906126d3565b80601f0160208091040260200160405190810160405280929190818152602001828054610b17906126d3565b8015610b645780601f10610b3957610100808354040283529160200191610b64565b820191906000526020600020905b815481529060010190602001808311610b4757829003601f168201915b5050505050905060096000858152602001908152602001600020548212610c135760088054610b92906126d3565b80601f0160208091040260200160405190810160405280929190818152602001828054610bbe906126d3565b8015610c0b5780601f10610be057610100808354040283529160200191610c0b565b820191906000526020600020905b815481529060010190602001808311610bee57829003601f168201915b505050505090505b610c1b6114f3565b610c4c610c2661044b565b83604051602001610c38929190612194565b604051602081830303815290604052610d21565b604051602001610c5d929190612170565b60405160208183030381529060405292505050919050565b60096020528060005260406000206000915090505481565b6000600560008473ffffffffffffffffffffffffffffffffffffffff1673ffffffffffffffffffffffffffffffffffffffff16815260200190815260200160002060008373ffffffffffffffffffffffffffffffffffffffff1673ffffffffffffffffffffffffffffffffffffffff16815260200190815260200160002060009054906101000a900460ff16905092915050565b6060600082511415610d4457604051806020016040528060008152509050610e95565b6000604051806060016040528060408152602001612c856040913990506000600360028551610d7391906124e8565b610d7d919061253e565b6004610d89919061256f565b90506000602082610d9a91906124e8565b67ffffffffffffffff811115610db357610db26127c3565b5b6040519080825280601f01601f191660200182016040528015610de55781602001600182028036833780820191505090505b509050818152600183018586518101602084015b81831015610e54576003830192508251603f8160121c168501518253600182019150603f81600c1c168501518253600182019150603f8160061c168501518253600182019150603f8116850151825360018201915050610df9565b600389510660018114610e6e5760028114610e7e57610e89565b613d3d60f01b6002830352610e89565b603d60f81b60018303525b50505050508093505050505b919050565b60007f01ffc9a7000000000000000000000000000000000000000000000000000000007bffffffffffffffffffffffffffffffffffffffffffffffffffffffff1916827bffffffffffffffffffffffffffffffffffffffffffffffffffffffff1916149050919050565b610f0d81611530565b610f4c576040517f08c379a0000000000000000000000000000000000000000000000000000000008152600401610f43906123a3565b60405180910390fd5b50565b600033905090565b816004600083815260200190815260200160002060006101000a81548173ffffffffffffffffffffffffffffffffffffffff021916908373ffffffffffffffffffffffffffffffffffffffff160217905550808273ffffffffffffffffffffffffffffffffffffffff16610fca836107c0565b73ffffffffffffffffffffffffffffffffffffffff167f8c5be1e5ebec7d5bd14f71427d1e84f3dd0314c0f7b2291e5b200ac8c7c3b92560405160405180910390a45050565b61102a82826040518060200160405280600081525061159c565b5050565b60008061103a836107c0565b90508073ffffffffffffffffffffffffffffffffffffffff168473ffffffffffffffffffffffffffffffffffffffff16148061107c575061107b8185610c8d565b5b806110ba57508373ffffffffffffffffffffffffffffffffffffffff166110a2846104dd565b73ffffffffffffffffffffffffffffffffffffffff16145b91505092915050565b8273ffffffffffffffffffffffffffffffffffffffff166110e3826107c0565b73ffffffffffffffffffffffffffffffffffffffff1614611139576040517f08c379a0000000000000000000000000000000000000000000000000000000008152600401611130906122c3565b60405180910390fd5b600073ffffffffffffffffffffffffffffffffffffffff168273ffffffffffffffffffffffffffffffffffffffff1614156111a9576040517f08c379a00000000000000000000000000000000000000000000000000000000081526004016111a090612303565b60405180910390fd5b6111b48383836115f7565b6111bf600082610f57565b6001600360008573ffffffffffffffffffffffffffffffffffffffff1673ffffffffffffffffffffffffffffffffffffffff168152602001908152602001600020600082825461120f91906125c9565b925050819055506001600360008473ffffffffffffffffffffffffffffffffffffffff1673ffffffffffffffffffffffffffffffffffffffff168152602001908152602001600020600082825461126691906124e8565b92505081905550816002600083815260200190815260200160002060006101000a81548173ffffffffffffffffffffffffffffffffffffffff021916908373ffffffffffffffffffffffffffffffffffffffff160217905550808273ffffffffffffffffffffffffffffffffffffffff168473ffffffffffffffffffffffffffffffffffffffff167fddf252ad1be2c89b69c2b068fc378daa952ba7f163c4a11628f55a4df523b3ef60405160405180910390a46113258383836115fc565b505050565b8173ffffffffffffffffffffffffffffffffffffffff168373ffffffffffffffffffffffffffffffffffffffff161415611399576040517f08c379a000000000000000000000000000000000000000000000000000000000815260040161139090612323565b60405180910390fd5b80600560008573ffffffffffffffffffffffffffffffffffffffff1673ffffffffffffffffffffffffffffffffffffffff16815260200190815260200160002060008473ffffffffffffffffffffffffffffffffffffffff1673ffffffffffffffffffffffffffffffffffffffff16815260200190815260200160002060006101000a81548160ff0219169083151502179055508173ffffffffffffffffffffffffffffffffffffffff168373ffffffffffffffffffffffffffffffffffffffff167f17307eab39ab6107e8899845ad3d59bd9653f200f220920489ca2b5937696c318360405161148a919061224b565b60405180910390a3505050565b6114a28484846110c3565b6114ae84848484611601565b6114ed576040517f08c379a00000000000000000000000000000000000000000000000000000000081526004016114e4906122a3565b60405180910390fd5b50505050565b60606040518060400160405280601d81526020017f646174613a6170706c69636174696f6e2f6a736f6e3b6261736536342c000000815250905090565b60008073ffffffffffffffffffffffffffffffffffffffff166002600084815260200190815260200160002060009054906101000a900473ffffffffffffffffffffffffffffffffffffffff1673ffffffffffffffffffffffffffffffffffffffff1614159050919050565b6115a68383611798565b6115b36000848484611601565b6115f2576040517f08c379a00000000000000000000000000000000000000000000000000000000081526004016115e9906122a3565b60405180910390fd5b505050565b505050565b505050565b60006116228473ffffffffffffffffffffffffffffffffffffffff16611972565b1561178b578373ffffffffffffffffffffffffffffffffffffffff1663150b7a0261164b610f4f565b8786866040518563ffffffff1660e01b815260040161166d94939291906121ff565b602060405180830381600087803b15801561168757600080fd5b505af19250505080156116b857506040513d601f19601f820116820180604052508101906116b59190611d22565b60015b61173b573d80600081146116e8576040519150601f19603f3d011682016040523d82523d6000602084013e6116ed565b606091505b50600081511415611733576040517f08c379a000000000000000000000000000000000000000000000000000000000815260040161172a906122a3565b60405180910390fd5b805181602001fd5b63150b7a0260e01b7bffffffffffffffffffffffffffffffffffffffffffffffffffffffff1916817bffffffffffffffffffffffffffffffffffffffffffffffffffffffff191614915050611790565b600190505b949350505050565b600073ffffffffffffffffffffffffffffffffffffffff168273ffffffffffffffffffffffffffffffffffffffff161415611808576040517f08c379a00000000000000000000000000000000000000000000000000000000081526004016117ff90612383565b60405180910390fd5b61181181611530565b15611851576040517f08c379a0000000000000000000000000000000000000000000000000000000008152600401611848906122e3565b60405180910390fd5b61185d600083836115f7565b6001600360008473ffffffffffffffffffffffffffffffffffffffff1673ffffffffffffffffffffffffffffffffffffffff16815260200190815260200160002060008282546118ad91906124e8565b92505081905550816002600083815260200190815260200160002060006101000a81548173ffffffffffffffffffffffffffffffffffffffff021916908373ffffffffffffffffffffffffffffffffffffffff160217905550808273ffffffffffffffffffffffffffffffffffffffff16600073ffffffffffffffffffffffffffffffffffffffff167fddf252ad1be2c89b69c2b068fc378daa952ba7f163c4a11628f55a4df523b3ef60405160405180910390a461196e600083836115fc565b5050565b6000808273ffffffffffffffffffffffffffffffffffffffff163b119050919050565b60006119a86119a384612443565b61241e565b9050828152602081018484840111156119c4576119c36127f7565b5b6119cf848285612691565b509392505050565b60006119ea6119e584612474565b61241e565b905082815260208101848484011115611a0657611a056127f7565b5b611a11848285612691565b509392505050565b600081359050611a2881612bfa565b92915050565b600081359050611a3d81612c11565b92915050565b600081359050611a5281612c28565b92915050565b600081519050611a6781612c28565b92915050565b600082601f830112611a8257611a816127f2565b5b8135611a92848260208601611995565b91505092915050565b600081359050611aaa81612c3f565b92915050565b600081519050611abf81612c3f565b92915050565b600082601f830112611ada57611ad96127f2565b5b8135611aea8482602086016119d7565b91505092915050565b600081359050611b0281612c56565b92915050565b600081519050611b1781612c56565b92915050565b600081519050611b2c81612c6d565b92915050565b600060208284031215611b4857611b47612801565b5b6000611b5684828501611a19565b91505092915050565b60008060408385031215611b7657611b75612801565b5b6000611b8485828601611a19565b9250506020611b9585828601611a19565b9150509250929050565b600080600060608486031215611bb857611bb7612801565b5b6000611bc686828701611a19565b9350506020611bd786828701611a19565b9250506040611be886828701611af3565b9150509250925092565b60008060008060808587031215611c0c57611c0b612801565b5b6000611c1a87828801611a19565b9450506020611c2b87828801611a19565b9350506040611c3c87828801611af3565b925050606085013567ffffffffffffffff811115611c5d57611c5c6127fc565b5b611c6987828801611a6d565b91505092959194509250565b60008060408385031215611c8c57611c8b612801565b5b6000611c9a85828601611a19565b9250506020611cab85828601611a2e565b9150509250929050565b60008060408385031215611ccc57611ccb612801565b5b6000611cda85828601611a19565b9250506020611ceb85828601611af3565b9150509250929050565b600060208284031215611d0b57611d0a612801565b5b6000611d1984828501611a43565b91505092915050565b600060208284031215611d3857611d37612801565b5b6000611d4684828501611a58565b91505092915050565b600060208284031215611d6557611d64612801565b5b6000611d7384828501611a9b565b91505092915050565b600060208284031215611d9257611d91612801565b5b600082013567ffffffffffffffff811115611db057611daf6127fc565b5b611dbc84828501611ac5565b91505092915050565b600060208284031215611ddb57611dda612801565b5b6000611de984828501611af3565b91505092915050565b600080600080600060a08688031215611e0e57611e0d612801565b5b6000611e1c88828901611b1d565b9550506020611e2d88828901611ab0565b9450506040611e3e88828901611b08565b9350506060611e4f88828901611b08565b9250506080611e6088828901611b1d565b9150509295509295909350565b611e76816125fd565b82525050565b611e858161260f565b82525050565b6000611e96826124a5565b611ea081856124bb565b9350611eb08185602086016126a0565b611eb981612806565b840191505092915050565b611ecd81612647565b82525050565b6000611ede826124b0565b611ee881856124cc565b9350611ef88185602086016126a0565b611f0181612806565b840191505092915050565b6000611f17826124b0565b611f2181856124dd565b9350611f318185602086016126a0565b80840191505092915050565b6000611f4a6009836124dd565b9150611f5582612817565b600982019050919050565b6000611f6d6032836124cc565b9150611f7882612840565b604082019050919050565b6000611f906025836124cc565b9150611f9b8261288f565b604082019050919050565b6000611fb3601c836124cc565b9150611fbe826128de565b602082019050919050565b6000611fd66024836124cc565b9150611fe182612907565b604082019050919050565b6000611ff96019836124cc565b915061200482612956565b602082019050919050565b600061201c6029836124cc565b91506120278261297f565b604082019050919050565b600061203f6002836124dd565b915061204a826129ce565b600282019050919050565b60006120626031836124dd565b915061206d826129f7565b603182019050919050565b6000612085603e836124cc565b915061209082612a46565b604082019050919050565b60006120a86020836124cc565b91506120b382612a95565b602082019050919050565b60006120cb6018836124cc565b91506120d682612abe565b602082019050919050565b60006120ee6021836124cc565b91506120f982612ae7565b604082019050919050565b6000612111602e836124cc565b915061211c82612b36565b604082019050919050565b60006121346043836124dd565b915061213f82612b85565b604382019050919050565b61215381612671565b82525050565b60006121658284611f0c565b915081905092915050565b600061217c8285611f0c565b91506121888284611f0c565b91508190509392505050565b600061219f82611f3d565b91506121ab8285611f0c565b91506121b682612055565b91506121c182612127565b91506121cd8284611f0c565b91506121d882612032565b91508190509392505050565b60006020820190506121f96000830184611e6d565b92915050565b60006080820190506122146000830187611e6d565b6122216020830186611e6d565b61222e604083018561214a565b81810360608301526122408184611e8b565b905095945050505050565b60006020820190506122606000830184611e7c565b92915050565b600060208201905061227b6000830184611ec4565b92915050565b6000602082019050818103600083015261229b8184611ed3565b905092915050565b600060208201905081810360008301526122bc81611f60565b9050919050565b600060208201905081810360008301526122dc81611f83565b9050919050565b600060208201905081810360008301526122fc81611fa6565b9050919050565b6000602082019050818103600083015261231c81611fc9565b9050919050565b6000602082019050818103600083015261233c81611fec565b9050919050565b6000602082019050818103600083015261235c8161200f565b9050919050565b6000602082019050818103600083015261237c81612078565b9050919050565b6000602082019050818103600083015261239c8161209b565b9050919050565b600060208201905081810360008301526123bc816120be565b9050919050565b600060208201905081810360008301526123dc816120e1565b9050919050565b600060208201905081810360008301526123fc81612104565b9050919050565b6000602082019050612418600083018461214a565b92915050565b6000612428612439565b90506124348282612705565b919050565b6000604051905090565b600067ffffffffffffffff82111561245e5761245d6127c3565b5b61246782612806565b9050602081019050919050565b600067ffffffffffffffff82111561248f5761248e6127c3565b5b61249882612806565b9050602081019050919050565b600081519050919050565b600081519050919050565b600082825260208201905092915050565b600082825260208201905092915050565b600081905092915050565b60006124f382612671565b91506124fe83612671565b9250827fffffffffffffffffffffffffffffffffffffffffffffffffffffffffffffffff0382111561253357612532612736565b5b828201905092915050565b600061254982612671565b915061255483612671565b92508261256457612563612765565b5b828204905092915050565b600061257a82612671565b915061258583612671565b9250817fffffffffffffffffffffffffffffffffffffffffffffffffffffffffffffffff04831182151516156125be576125bd612736565b5b828202905092915050565b60006125d482612671565b91506125df83612671565b9250828210156125f2576125f1612736565b5b828203905092915050565b600061260882612651565b9050919050565b60008115159050919050565b60007fffffffff0000000000000000000000000000000000000000000000000000000082169050919050565b6000819050919050565b600073ffffffffffffffffffffffffffffffffffffffff82169050919050565b6000819050919050565b600069ffffffffffffffffffff82169050919050565b82818337600083830152505050565b60005b838110156126be5780820151818401526020810190506126a3565b838111156126cd576000848401525b50505050565b600060028204905060018216806126eb57607f821691505b602082108114156126ff576126fe612794565b5b50919050565b61270e82612806565b810181811067ffffffffffffffff8211171561272d5761272c6127c3565b5b80604052505050565b7f4e487b7100000000000000000000000000000000000000000000000000000000600052601160045260246000fd5b7f4e487b7100000000000000000000000000000000000000000000000000000000600052601260045260246000fd5b7f4e487b7100000000000000000000000000000000000000000000000000000000600052602260045260246000fd5b7f4e487b7100000000000000000000000000000000000000000000000000000000600052604160045260246000fd5b600080fd5b600080fd5b600080fd5b600080fd5b6000601f19601f8301169050919050565b7f7b226e616d65223a220000000000000000000000000000000000000000000000600082015250565b7f4552433732313a207472616e7366657220746f206e6f6e20455243373231526560008201527f63656976657220696d706c656d656e7465720000000000000000000000000000602082015250565b7f4552433732313a207472616e736665722066726f6d20696e636f72726563742060008201527f6f776e6572000000000000000000000000000000000000000000000000000000602082015250565b7f4552433732313a20746f6b656e20616c7265616479206d696e74656400000000600082015250565b7f4552433732313a207472616e7366657220746f20746865207a65726f2061646460008201527f7265737300000000000000000000000000000000000000000000000000000000602082015250565b7f4552433732313a20617070726f766520746f2063616c6c657200000000000000600082015250565b7f4552433732313a2061646472657373207a65726f206973206e6f74206120766160008201527f6c6964206f776e65720000000000000000000000000000000000000000000000602082015250565b7f227d000000000000000000000000000000000000000000000000000000000000600082015250565b7f222c20226465736372697074696f6e223a22412062656175746966756c204e4660008201527f542074686174206368616e676573222c20000000000000000000000000000000602082015250565b7f4552433732313a20617070726f76652063616c6c6572206973206e6f7420746f60008201527f6b656e206f776e6572206e6f7220617070726f76656420666f7220616c6c0000602082015250565b7f4552433732313a206d696e7420746f20746865207a65726f2061646472657373600082015250565b7f4552433732313a20696e76616c696420746f6b656e2049440000000000000000600082015250565b7f4552433732313a20617070726f76616c20746f2063757272656e74206f776e6560008201527f7200000000000000000000000000000000000000000000000000000000000000602082015250565b7f4552433732313a2063616c6c6572206973206e6f7420746f6b656e206f776e6560008201527f72206e6f7220617070726f766564000000000000000000000000000000000000602082015250565b7f2261747472696275746573223a205b7b2274726169745f74797065223a20226360008201527f6f6f6c6e657373222c202276616c7565223a203130307d5d2c2022696d61676560208201527f223a220000000000000000000000000000000000000000000000000000000000604082015250565b612c03816125fd565b8114612c0e57600080fd5b50565b612c1a8161260f565b8114612c2557600080fd5b50565b612c318161261b565b8114612c3c57600080fd5b50565b612c4881612647565b8114612c5357600080fd5b50565b612c5f81612671565b8114612c6a57600080fd5b50565b612c768161267b565b8114612c8157600080fd5b5056fe4142434445464748494a4b4c4d4e4f505152535455565758595a6162636465666768696a6b6c6d6e6f707172737475767778797a303132333435363738392b2fa26469706673582212203df479e5d59725ba557ce52511918b7f8256cf692ebd44148b3914a0dab5f88864736f6c634300080700334142434445464748494a4b4c4d4e4f505152535455565758595a6162636465666768696a6b6c6d6e6f707172737475767778797a303132333435363738392b2f",
  "linkReferences": {},
  "deployedLinkReferences": {}
}