{
  "_format": "hh-sol-artifact-1",
  "contractName": "RandomipfsNFT",
  "sourceName": "contracts/RandomipfsNft.sol",
  "abi": [
    {
      "inputs": [
        {
          "internalType": "address",
          "name": "vrfCoordinatorV2",
          "type": "address"
        },
        {
          "internalType": "uint64",
          "name": "subscriptionId",
          "type": "uint64"
        },
        {
          "internalType": "bytes32",
          "name": "gasLane",
          "type": "bytes32"
        },
        {
          "internalType": "uint32",
          "name": "callbackGasLimit",
          "type": "uint32"
        },
        {
          "internalType": "string[3]",
          "name": "dogTokenUris",
          "type": "string[3]"
        },
        {
          "internalType": "uint256",
          "name": "mintFee",
          "type": "uint256"
        }
      ],
      "stateMutability": "nonpayable",
      "type": "constructor"
    },
    {
      "inputs": [
        {
          "internalType": "address",
          "name": "have",
          "type": "address"
        },
        {
          "internalType": "address",
          "name": "want",
          "type": "address"
        }
      ],
      "name": "OnlyCoordinatorCanFulfill",
      "type": "error"
    },
    {
      "inputs": [],
      "name": "RandomipfsNFT__NeedMoreETHSent",
      "type": "error"
    },
    {
      "inputs": [],
      "name": "RandomipfsNFT__RangeOutOfBounds",
      "type": "error"
    },
    {
      "inputs": [],
      "name": "RandomipfsNFT__TransferFailed",
      "type": "error"
    },
    {
      "anonymous": false,
      "inputs": [
        {
          "indexed": true,
          "internalType": "address",
          "name": "owner",
          "type": "address"
        },
        {
          "indexed": true,
          "internalType": "address",
          "name": "approved",
          "type": "address"
        },
        {
          "indexed": true,
          "internalType": "uint256",
          "name": "tokenId",
          "type": "uint256"
        }
      ],
      "name": "Approval",
      "type": "event"
    },
    {
      "anonymous": false,
      "inputs": [
        {
          "indexed": true,
          "internalType": "address",
          "name": "owner",
          "type": "address"
        },
        {
          "indexed": true,
          "internalType": "address",
          "name": "operator",
          "type": "address"
        },
        {
          "indexed": false,
          "internalType": "bool",
          "name": "approved",
          "type": "bool"
        }
      ],
      "name": "ApprovalForAll",
      "type": "event"
    },
    {
      "anonymous": false,
      "inputs": [
        {
          "indexed": false,
          "internalType": "enum RandomipfsNFT.Breed",
          "name": "dogBreed",
          "type": "uint8"
        },
        {
          "indexed": false,
          "internalType": "address",
          "name": "minter",
          "type": "address"
        }
      ],
      "name": "NftMinted",
      "type": "event"
    },
    {
      "anonymous": false,
      "inputs": [
        {
          "indexed": true,
          "internalType": "uint256",
          "name": "requestId",
          "type": "uint256"
        },
        {
          "indexed": false,
          "internalType": "address",
          "name": "requester",
          "type": "address"
        }
      ],
      "name": "NftRequested",
      "type": "event"
    },
    {
      "anonymous": false,
      "inputs": [
        {
          "indexed": true,
          "internalType": "address",
          "name": "previousOwner",
          "type": "address"
        },
        {
          "indexed": true,
          "internalType": "address",
          "name": "newOwner",
          "type": "address"
        }
      ],
      "name": "OwnershipTransferred",
      "type": "event"
    },
    {
      "anonymous": false,
      "inputs": [
        {
          "indexed": true,
          "internalType": "address",
          "name": "from",
          "type": "address"
        },
        {
          "indexed": true,
          "internalType": "address",
          "name": "to",
          "type": "address"
        },
        {
          "indexed": true,
          "internalType": "uint256",
          "name": "tokenId",
          "type": "uint256"
        }
      ],
      "name": "Transfer",
      "type": "event"
    },
    {
      "inputs": [
        {
          "internalType": "address",
          "name": "to",
          "type": "address"
        },
        {
          "internalType": "uint256",
          "name": "tokenId",
          "type": "uint256"
        }
      ],
      "name": "approve",
      "outputs": [],
      "stateMutability": "nonpayable",
      "type": "function"
    },
    {
      "inputs": [
        {
          "internalType": "address",
          "name": "owner",
          "type": "address"
        }
      ],
      "name": "balanceOf",
      "outputs": [
        {
          "internalType": "uint256",
          "name": "",
          "type": "uint256"
        }
      ],
      "stateMutability": "view",
      "type": "function"
    },
    {
      "inputs": [
        {
          "internalType": "uint256",
          "name": "tokenId",
          "type": "uint256"
        }
      ],
      "name": "getApproved",
      "outputs": [
        {
          "internalType": "address",
          "name": "",
          "type": "address"
        }
      ],
      "stateMutability": "view",
      "type": "function"
    },
    {
      "inputs": [
        {
          "internalType": "uint256",
          "name": "moddedRng",
          "type": "uint256"
        }
      ],
      "name": "getBreedFromModdedRng",
      "outputs": [
        {
          "internalType": "enum RandomipfsNFT.Breed",
          "name": "",
          "type": "uint8"
        }
      ],
      "stateMutability": "pure",
      "type": "function"
    },
    {
      "inputs": [],
      "name": "getChanceArray",
      "outputs": [
        {
          "internalType": "uint256[3]",
          "name": "",
          "type": "uint256[3]"
        }
      ],
      "stateMutability": "pure",
      "type": "function"
    },
    {
      "inputs": [
        {
          "internalType": "uint256",
          "name": "index",
          "type": "uint256"
        }
      ],
      "name": "getDogTokenUris",
      "outputs": [
        {
          "internalType": "string",
          "name": "",
          "type": "string"
        }
      ],
      "stateMutability": "view",
      "type": "function"
    },
    {
      "inputs": [],
      "name": "getMintFee",
      "outputs": [
        {
          "internalType": "uint256",
          "name": "",
          "type": "uint256"
        }
      ],
      "stateMutability": "view",
      "type": "function"
    },
    {
      "inputs": [],
      "name": "getTokenCounter",
      "outputs": [
        {
          "internalType": "uint256",
          "name": "",
          "type": "uint256"
        }
      ],
      "stateMutability": "view",
      "type": "function"
    },
    {
      "inputs": [
        {
          "internalType": "address",
          "name": "owner",
          "type": "address"
        },
        {
          "internalType": "address",
          "name": "operator",
          "type": "address"
        }
      ],
      "name": "isApprovedForAll",
      "outputs": [
        {
          "internalType": "bool",
          "name": "",
          "type": "bool"
        }
      ],
      "stateMutability": "view",
      "type": "function"
    },
    {
      "inputs": [],
      "name": "name",
      "outputs": [
        {
          "internalType": "string",
          "name": "",
          "type": "string"
        }
      ],
      "stateMutability": "view",
      "type": "function"
    },
    {
      "inputs": [],
      "name": "owner",
      "outputs": [
        {
          "internalType": "address",
          "name": "",
          "type": "address"
        }
      ],
      "stateMutability": "view",
      "type": "function"
    },
    {
      "inputs": [
        {
          "internalType": "uint256",
          "name": "tokenId",
          "type": "uint256"
        }
      ],
      "name": "ownerOf",
      "outputs": [
        {
          "internalType": "address",
          "name": "",
          "type": "address"
        }
      ],
      "stateMutability": "view",
      "type": "function"
    },
    {
      "inputs": [
        {
          "internalType": "uint256",
          "name": "requestId",
          "type": "uint256"
        },
        {
          "internalType": "uint256[]",
          "name": "randomWords",
          "type": "uint256[]"
        }
      ],
      "name": "rawFulfillRandomWords",
      "outputs": [],
      "stateMutability": "nonpayable",
      "type": "function"
    },
    {
      "inputs": [],
      "name": "renounceOwnership",
      "outputs": [],
      "stateMutability": "nonpayable",
      "type": "function"
    },
    {
      "inputs": [],
      "name": "requestNft",
      "outputs": [
        {
          "internalType": "uint256",
          "name": "requestId",
          "type": "uint256"
        }
      ],
      "stateMutability": "payable",
      "type": "function"
    },
    {
      "inputs": [
        {
          "internalType": "uint256",
          "name": "",
          "type": "uint256"
        }
      ],
      "name": "s_requestIdToSender",
      "outputs": [
        {
          "internalType": "address",
          "name": "",
          "type": "address"
        }
      ],
      "stateMutability": "view",
      "type": "function"
    },
    {
      "inputs": [],
      "name": "s_tokenCounter",
      "outputs": [
        {
          "internalType": "uint256",
          "name": "",
          "type": "uint256"
        }
      ],
      "stateMutability": "view",
      "type": "function"
    },
    {
      "inputs": [
        {
          "internalType": "address",
          "name": "from",
          "type": "address"
        },
        {
          "internalType": "address",
          "name": "to",
          "type": "address"
        },
        {
          "internalType": "uint256",
          "name": "tokenId",
          "type": "uint256"
        }
      ],
      "name": "safeTransferFrom",
      "outputs": [],
      "stateMutability": "nonpayable",
      "type": "function"
    },
    {
      "inputs": [
        {
          "internalType": "address",
          "name": "from",
          "type": "address"
        },
        {
          "internalType": "address",
          "name": "to",
          "type": "address"
        },
        {
          "internalType": "uint256",
          "name": "tokenId",
          "type": "uint256"
        },
        {
          "internalType": "bytes",
          "name": "data",
          "type": "bytes"
        }
      ],
      "name": "safeTransferFrom",
      "outputs": [],
      "stateMutability": "nonpayable",
      "type": "function"
    },
    {
      "inputs": [
        {
          "internalType": "address",
          "name": "operator",
          "type": "address"
        },
        {
          "internalType": "bool",
          "name": "approved",
          "type": "bool"
        }
      ],
      "name": "setApprovalForAll",
      "outputs": [],
      "stateMutability": "nonpayable",
      "type": "function"
    },
    {
      "inputs": [
        {
          "internalType": "bytes4",
          "name": "interfaceId",
          "type": "bytes4"
        }
      ],
      "name": "supportsInterface",
      "outputs": [
        {
          "internalType": "bool",
          "name": "",
          "type": "bool"
        }
      ],
      "stateMutability": "view",
      "type": "function"
    },
    {
      "inputs": [],
      "name": "symbol",
      "outputs": [
        {
          "internalType": "string",
          "name": "",
          "type": "string"
        }
      ],
      "stateMutability": "view",
      "type": "function"
    },
    {
      "inputs": [
        {
          "internalType": "uint256",
          "name": "tokenId",
          "type": "uint256"
        }
      ],
      "name": "tokenURI",
      "outputs": [
        {
          "internalType": "string",
          "name": "",
          "type": "string"
        }
      ],
      "stateMutability": "view",
      "type": "function"
    },
    {
      "inputs": [
        {
          "internalType": "address",
          "name": "from",
          "type": "address"
        },
        {
          "internalType": "address",
          "name": "to",
          "type": "address"
        },
        {
          "internalType": "uint256",
          "name": "tokenId",
          "type": "uint256"
        }
      ],
      "name": "transferFrom",
      "outputs": [],
      "stateMutability": "nonpayable",
      "type": "function"
    },
    {
      "inputs": [
        {
          "internalType": "address",
          "name": "newOwner",
          "type": "address"
        }
      ],
      "name": "transferOwnership",
      "outputs": [],
      "stateMutability": "nonpayable",
      "type": "function"
    },
    {
      "inputs": [],
      "name": "withdraw",
      "outputs": [],
      "stateMutability": "nonpayable",
      "type": "function"
    }
  ],
  "bytecode": "0x6101406040523480156200001257600080fd5b506040516200430f3803806200430f8339818101604052810190620000389190620005d7565b6040518060400160405280600f81526020017f52616e646f6d2049504653204e465400000000000000000000000000000000008152506040518060400160405280600381526020017f52494e0000000000000000000000000000000000000000000000000000000000815250878073ffffffffffffffffffffffffffffffffffffffff1660808173ffffffffffffffffffffffffffffffffffffffff1660601b81525050508160009080519060200190620000f59291906200029e565b5080600190805190602001906200010e9291906200029e565b5050506200013162000125620001d060201b60201c565b620001d860201b60201c565b8573ffffffffffffffffffffffffffffffffffffffff1660a08173ffffffffffffffffffffffffffffffffffffffff1660601b815250508467ffffffffffffffff1660c08167ffffffffffffffff1660c01b815250508360e081815250508263ffffffff166101008163ffffffff1660e01b8152505081600a906003620001ba9291906200032f565b5080610120818152505050505050505062000932565b600033905090565b6000600760009054906101000a900473ffffffffffffffffffffffffffffffffffffffff16905081600760006101000a81548173ffffffffffffffffffffffffffffffffffffffff021916908373ffffffffffffffffffffffffffffffffffffffff1602179055508173ffffffffffffffffffffffffffffffffffffffff168173ffffffffffffffffffffffffffffffffffffffff167f8be0079c531659141344cd1fd0a4f28419497f9722a3daafe3b4186f6b6457e060405160405180910390a35050565b828054620002ac90620007bc565b90600052602060002090601f016020900481019282620002d057600085556200031c565b82601f10620002eb57805160ff19168380011785556200031c565b828001600101855582156200031c579182015b828111156200031b578251825591602001919060010190620002fe565b5b5090506200032b919062000396565b5090565b82805482825590600052602060002090810192821562000383579160200282015b8281111562000382578251829080519060200190620003719291906200029e565b509160200191906001019062000350565b5b509050620003929190620003b5565b5090565b5b80821115620003b157600081600090555060010162000397565b5090565b5b80821115620003d95760008181620003cf9190620003dd565b50600101620003b6565b5090565b508054620003eb90620007bc565b6000825580601f10620003ff575062000420565b601f0160209004906000526020600020908101906200041f919062000396565b5b50565b60006200043a6200043484620006bb565b62000692565b905080828560208602820111156200045757620004566200088b565b5b60005b85811015620004ac57815167ffffffffffffffff81111562000481576200048062000886565b5b8086016200049089826200055f565b855260208501945060208401935050506001810190506200045a565b5050509392505050565b6000620004cd620004c784620006e4565b62000692565b905082815260208101848484011115620004ec57620004eb62000890565b5b620004f984828562000786565b509392505050565b6000815190506200051281620008b0565b92915050565b600082601f83011262000530576200052f62000886565b5b60036200053f84828562000423565b91505092915050565b6000815190506200055981620008ca565b92915050565b600082601f83011262000577576200057662000886565b5b815162000589848260208601620004b6565b91505092915050565b600081519050620005a381620008e4565b92915050565b600081519050620005ba81620008fe565b92915050565b600081519050620005d18162000918565b92915050565b60008060008060008060c08789031215620005f757620005f66200089a565b5b60006200060789828a0162000501565b96505060206200061a89828a01620005c0565b95505060406200062d89828a0162000548565b94505060606200064089828a01620005a9565b935050608087015167ffffffffffffffff81111562000664576200066362000895565b5b6200067289828a0162000518565b92505060a06200068589828a0162000592565b9150509295509295509295565b60006200069e620006b1565b9050620006ac8282620007f2565b919050565b6000604051905090565b600067ffffffffffffffff821115620006d957620006d862000857565b5b602082029050919050565b600067ffffffffffffffff82111562000702576200070162000857565b5b6200070d826200089f565b9050602081019050919050565b6000620007278262000738565b9050919050565b6000819050919050565b600073ffffffffffffffffffffffffffffffffffffffff82169050919050565b6000819050919050565b600063ffffffff82169050919050565b600067ffffffffffffffff82169050919050565b60005b83811015620007a657808201518184015260208101905062000789565b83811115620007b6576000848401525b50505050565b60006002820490506001821680620007d557607f821691505b60208210811415620007ec57620007eb62000828565b5b50919050565b620007fd826200089f565b810181811067ffffffffffffffff821117156200081f576200081e62000857565b5b80604052505050565b7f4e487b7100000000000000000000000000000000000000000000000000000000600052602260045260246000fd5b7f4e487b7100000000000000000000000000000000000000000000000000000000600052604160045260246000fd5b600080fd5b600080fd5b600080fd5b600080fd5b600080fd5b6000601f19601f8301169050919050565b620008bb816200071a565b8114620008c757600080fd5b50565b620008d5816200072e565b8114620008e157600080fd5b50565b620008ef8162000758565b8114620008fb57600080fd5b50565b620009098162000762565b81146200091557600080fd5b50565b620009238162000772565b81146200092f57600080fd5b50565b60805160601c60a05160601c60c05160c01c60e0516101005160e01c610120516139736200099c60003960008181610d760152610f850152600061105f0152600061101b0152600061103c01526000610fdf01526000818161091d015261097101526139736000f3fe6080604052600436106101815760003560e01c806370a08231116100d1578063a36f573b1161008a578063b88d4fde11610064578063b88d4fde14610577578063c87b56dd146105a0578063e985e9c5146105dd578063f2fde38b1461061a57610181565b8063a36f573b146104df578063a51cccf31461051c578063aa1524911461055957610181565b806370a08231146103e1578063715018a61461041e5780637a5caab3146104355780638da5cb5b1461046057806395d89b411461048b578063a22cb465146104b657610181565b806323b872dd1161013e57806342842e0e1161011857806342842e0e146103255780635dacf5f41461034e5780636352211e146103795780636e02007d146103b657610181565b806323b872dd146102a85780633af25975146102d15780633ccfd60b1461030e57610181565b806301ffc9a71461018657806306fdde03146101c3578063081812fc146101ee578063095ea7b31461022b5780630b21a83b146102545780631fe543e31461027f575b600080fd5b34801561019257600080fd5b506101ad60048036038101906101a891906127fd565b610643565b6040516101ba9190612d97565b60405180910390f35b3480156101cf57600080fd5b506101d8610725565b6040516101e59190612e49565b60405180910390f35b3480156101fa57600080fd5b5061021560048036038101906102109190612857565b6107b7565b6040516102229190612cec565b60405180910390f35b34801561023757600080fd5b50610252600480360381019061024d91906127bd565b6107fd565b005b34801561026057600080fd5b50610269610915565b604051610276919061302b565b60405180910390f35b34801561028b57600080fd5b506102a660048036038101906102a191906128b1565b61091b565b005b3480156102b457600080fd5b506102cf60048036038101906102ca91906126a7565b6109db565b005b3480156102dd57600080fd5b506102f860048036038101906102f39190612857565b610a3b565b6040516103059190612e49565b60405180910390f35b34801561031a57600080fd5b50610323610aeb565b005b34801561033157600080fd5b5061034c600480360381019061034791906126a7565b610b9f565b005b34801561035a57600080fd5b50610363610bbf565b6040516103709190612d7c565b60405180910390f35b34801561038557600080fd5b506103a0600480360381019061039b9190612857565b610bea565b6040516103ad9190612cec565b60405180910390f35b3480156103c257600080fd5b506103cb610c9c565b6040516103d8919061302b565b60405180910390f35b3480156103ed57600080fd5b506104086004803603810190610403919061263a565b610ca6565b604051610415919061302b565b60405180910390f35b34801561042a57600080fd5b50610433610d5e565b005b34801561044157600080fd5b5061044a610d72565b604051610457919061302b565b60405180910390f35b34801561046c57600080fd5b50610475610d9a565b6040516104829190612cec565b60405180910390f35b34801561049757600080fd5b506104a0610dc4565b6040516104ad9190612e49565b60405180910390f35b3480156104c257600080fd5b506104dd60048036038101906104d8919061277d565b610e56565b005b3480156104eb57600080fd5b5061050660048036038101906105019190612857565b610e6c565b6040516105139190612cec565b60405180910390f35b34801561052857600080fd5b50610543600480360381019061053e9190612857565b610e9f565b6040516105509190612e05565b60405180910390f35b610561610f81565b60405161056e919061302b565b60405180910390f35b34801561058357600080fd5b5061059e600480360381019061059991906126fa565b611181565b005b3480156105ac57600080fd5b506105c760048036038101906105c29190612857565b6111e3565b6040516105d49190612e49565b60405180910390f35b3480156105e957600080fd5b5061060460048036038101906105ff9190612667565b6112f6565b6040516106119190612d97565b60405180910390f35b34801561062657600080fd5b50610641600480360381019061063c919061263a565b61138a565b005b60007f80ac58cd000000000000000000000000000000000000000000000000000000007bffffffffffffffffffffffffffffffffffffffffffffffffffffffff1916827bffffffffffffffffffffffffffffffffffffffffffffffffffffffff1916148061070e57507f5b5e139f000000000000000000000000000000000000000000000000000000007bffffffffffffffffffffffffffffffffffffffffffffffffffffffff1916827bffffffffffffffffffffffffffffffffffffffffffffffffffffffff1916145b8061071e575061071d8261140e565b5b9050919050565b60606000805461073490613315565b80601f016020809104026020016040519081016040528092919081815260200182805461076090613315565b80156107ad5780601f10610782576101008083540402835291602001916107ad565b820191906000526020600020905b81548152906001019060200180831161079057829003601f168201915b5050505050905090565b60006107c282611478565b6004600083815260200190815260200160002060009054906101000a900473ffffffffffffffffffffffffffffffffffffffff169050919050565b600061080882610bea565b90508073ffffffffffffffffffffffffffffffffffffffff168373ffffffffffffffffffffffffffffffffffffffff161415610879576040517f08c379a000000000000000000000000000000000000000000000000000000000815260040161087090612feb565b60405180910390fd5b8073ffffffffffffffffffffffffffffffffffffffff166108986114c3565b73ffffffffffffffffffffffffffffffffffffffff1614806108c757506108c6816108c16114c3565b6112f6565b5b610906576040517f08c379a00000000000000000000000000000000000000000000000000000000081526004016108fd90612f6b565b60405180910390fd5b61091083836114cb565b505050565b60095481565b7f000000000000000000000000000000000000000000000000000000000000000073ffffffffffffffffffffffffffffffffffffffff163373ffffffffffffffffffffffffffffffffffffffff16146109cd57337f00000000000000000000000000000000000000000000000000000000000000006040517f1cf993f40000000000000000000000000000000000000000000000000000000081526004016109c4929190612d07565b60405180910390fd5b6109d78282611584565b5050565b6109ec6109e66114c3565b82611709565b610a2b576040517f08c379a0000000000000000000000000000000000000000000000000000000008152600401610a229061300b565b60405180910390fd5b610a3683838361179e565b505050565b6060600a8281548110610a5157610a506134ae565b5b906000526020600020018054610a6690613315565b80601f0160208091040260200160405190810160405280929190818152602001828054610a9290613315565b8015610adf5780601f10610ab457610100808354040283529160200191610adf565b820191906000526020600020905b815481529060010190602001808311610ac257829003601f168201915b50505050509050919050565b610af3611a05565b600047905060003373ffffffffffffffffffffffffffffffffffffffff1682604051610b1e90612cd7565b60006040518083038185875af1925050503d8060008114610b5b576040519150601f19603f3d011682016040523d82523d6000602084013e610b60565b606091505b5050905080610b9b576040517f6e860cd700000000000000000000000000000000000000000000000000000000815260040160405180910390fd5b5050565b610bba83838360405180602001604052806000815250611181565b505050565b610bc76123e9565b6040518060600160405280600a8152602001601e81526020016064815250905090565b6000806002600084815260200190815260200160002060009054906101000a900473ffffffffffffffffffffffffffffffffffffffff169050600073ffffffffffffffffffffffffffffffffffffffff168173ffffffffffffffffffffffffffffffffffffffff161415610c93576040517f08c379a0000000000000000000000000000000000000000000000000000000008152600401610c8a90612fcb565b60405180910390fd5b80915050919050565b6000600954905090565b60008073ffffffffffffffffffffffffffffffffffffffff168273ffffffffffffffffffffffffffffffffffffffff161415610d17576040517f08c379a0000000000000000000000000000000000000000000000000000000008152600401610d0e90612f2b565b60405180910390fd5b600360008373ffffffffffffffffffffffffffffffffffffffff1673ffffffffffffffffffffffffffffffffffffffff168152602001908152602001600020549050919050565b610d66611a05565b610d706000611a83565b565b60007f0000000000000000000000000000000000000000000000000000000000000000905090565b6000600760009054906101000a900473ffffffffffffffffffffffffffffffffffffffff16905090565b606060018054610dd390613315565b80601f0160208091040260200160405190810160405280929190818152602001828054610dff90613315565b8015610e4c5780601f10610e2157610100808354040283529160200191610e4c565b820191906000526020600020905b815481529060010190602001808311610e2f57829003601f168201915b5050505050905090565b610e68610e616114c3565b8383611b49565b5050565b60086020528060005260406000206000915054906101000a900473ffffffffffffffffffffffffffffffffffffffff1681565b600080600090506000610eb0610bbf565b905060005b6003811015610f4957828510158015610eef5750818160038110610edc57610edb6134ae565b5b602002015183610eec9190613143565b85105b15610f1157806002811115610f0757610f06613450565b5b9350505050610f7c565b818160038110610f2457610f236134ae565b5b602002015183610f349190613143565b92508080610f4190613378565b915050610eb5565b506040517f47c7d1d000000000000000000000000000000000000000000000000000000000815260040160405180910390fd5b919050565b60007f0000000000000000000000000000000000000000000000000000000000000000341015610fdd576040517fc5a4ec2300000000000000000000000000000000000000000000000000000000815260040160405180910390fd5b7f000000000000000000000000000000000000000000000000000000000000000073ffffffffffffffffffffffffffffffffffffffff16635d3b1d307f00000000000000000000000000000000000000000000000000000000000000007f000000000000000000000000000000000000000000000000000000000000000060037f000000000000000000000000000000000000000000000000000000000000000060016040518663ffffffff1660e01b81526004016110a0959493929190612db2565b602060405180830381600087803b1580156110ba57600080fd5b505af11580156110ce573d6000803e3d6000fd5b505050506040513d601f19601f820116820180604052508101906110f29190612884565b9050336008600083815260200190815260200160002060006101000a81548173ffffffffffffffffffffffffffffffffffffffff021916908373ffffffffffffffffffffffffffffffffffffffff160217905550807ff873236e6cc0ecc5be1a9a35c95ee5b8d1ac4cc7bfef0cc5060391d6cc98e26b336040516111769190612cec565b60405180910390a290565b61119261118c6114c3565b83611709565b6111d1576040517f08c379a00000000000000000000000000000000000000000000000000000000081526004016111c89061300b565b60405180910390fd5b6111dd84848484611cb6565b50505050565b60606111ee82611478565b600060066000848152602001908152602001600020805461120e90613315565b80601f016020809104026020016040519081016040528092919081815260200182805461123a90613315565b80156112875780601f1061125c57610100808354040283529160200191611287565b820191906000526020600020905b81548152906001019060200180831161126a57829003601f168201915b505050505090506000611298611d12565b90506000815114156112ae5781925050506112f1565b6000825111156112e35780826040516020016112cb929190612cb3565b604051602081830303815290604052925050506112f1565b6112ec84611d29565b925050505b919050565b6000600560008473ffffffffffffffffffffffffffffffffffffffff1673ffffffffffffffffffffffffffffffffffffffff16815260200190815260200160002060008373ffffffffffffffffffffffffffffffffffffffff1673ffffffffffffffffffffffffffffffffffffffff16815260200190815260200160002060009054906101000a900460ff16905092915050565b611392611a05565b600073ffffffffffffffffffffffffffffffffffffffff168173ffffffffffffffffffffffffffffffffffffffff161415611402576040517f08c379a00000000000000000000000000000000000000000000000000000000081526004016113f990612e8b565b60405180910390fd5b61140b81611a83565b50565b60007f01ffc9a7000000000000000000000000000000000000000000000000000000007bffffffffffffffffffffffffffffffffffffffffffffffffffffffff1916827bffffffffffffffffffffffffffffffffffffffffffffffffffffffff1916149050919050565b61148181611d91565b6114c0576040517f08c379a00000000000000000000000000000000000000000000000000000000081526004016114b790612fcb565b60405180910390fd5b50565b600033905090565b816004600083815260200190815260200160002060006101000a81548173ffffffffffffffffffffffffffffffffffffffff021916908373ffffffffffffffffffffffffffffffffffffffff160217905550808273ffffffffffffffffffffffffffffffffffffffff1661153e83610bea565b73ffffffffffffffffffffffffffffffffffffffff167f8c5be1e5ebec7d5bd14f71427d1e84f3dd0314c0f7b2291e5b200ac8c7c3b92560405160405180910390a45050565b60006008600084815260200190815260200160002060009054906101000a900473ffffffffffffffffffffffffffffffffffffffff1690506000600954905060006064846000815181106115db576115da6134ae565b5b60200260200101516115ed91906133c1565b905060006115fa82610e9f565b90506116068484611dfd565b6116c883600a83600281111561161f5761161e613450565b5b815481106116305761162f6134ae565b5b90600052602060002001805461164590613315565b80601f016020809104026020016040519081016040528092919081815260200182805461167190613315565b80156116be5780601f10611693576101008083540402835291602001916116be565b820191906000526020600020905b8154815290600101906020018083116116a157829003601f168201915b5050505050611e1b565b7f8a269f26b688e110e9cbd887d163dab35cae678fa353a0292de532c0cac1ecdc81856040516116f9929190612e20565b60405180910390a1505050505050565b60008061171583610bea565b90508073ffffffffffffffffffffffffffffffffffffffff168473ffffffffffffffffffffffffffffffffffffffff161480611757575061175681856112f6565b5b8061179557508373ffffffffffffffffffffffffffffffffffffffff1661177d846107b7565b73ffffffffffffffffffffffffffffffffffffffff16145b91505092915050565b8273ffffffffffffffffffffffffffffffffffffffff166117be82610bea565b73ffffffffffffffffffffffffffffffffffffffff1614611814576040517f08c379a000000000000000000000000000000000000000000000000000000000815260040161180b90612eab565b60405180910390fd5b600073ffffffffffffffffffffffffffffffffffffffff168273ffffffffffffffffffffffffffffffffffffffff161415611884576040517f08c379a000000000000000000000000000000000000000000000000000000000815260040161187b90612eeb565b60405180910390fd5b61188f838383611e8f565b61189a6000826114cb565b6001600360008573ffffffffffffffffffffffffffffffffffffffff1673ffffffffffffffffffffffffffffffffffffffff16815260200190815260200160002060008282546118ea91906131ca565b925050819055506001600360008473ffffffffffffffffffffffffffffffffffffffff1673ffffffffffffffffffffffffffffffffffffffff16815260200190815260200160002060008282546119419190613143565b92505081905550816002600083815260200190815260200160002060006101000a81548173ffffffffffffffffffffffffffffffffffffffff021916908373ffffffffffffffffffffffffffffffffffffffff160217905550808273ffffffffffffffffffffffffffffffffffffffff168473ffffffffffffffffffffffffffffffffffffffff167fddf252ad1be2c89b69c2b068fc378daa952ba7f163c4a11628f55a4df523b3ef60405160405180910390a4611a00838383611e94565b505050565b611a0d6114c3565b73ffffffffffffffffffffffffffffffffffffffff16611a2b610d9a565b73ffffffffffffffffffffffffffffffffffffffff1614611a81576040517f08c379a0000000000000000000000000000000000000000000000000000000008152600401611a7890612fab565b60405180910390fd5b565b6000600760009054906101000a900473ffffffffffffffffffffffffffffffffffffffff16905081600760006101000a81548173ffffffffffffffffffffffffffffffffffffffff021916908373ffffffffffffffffffffffffffffffffffffffff1602179055508173ffffffffffffffffffffffffffffffffffffffff168173ffffffffffffffffffffffffffffffffffffffff167f8be0079c531659141344cd1fd0a4f28419497f9722a3daafe3b4186f6b6457e060405160405180910390a35050565b8173ffffffffffffffffffffffffffffffffffffffff168373ffffffffffffffffffffffffffffffffffffffff161415611bb8576040517f08c379a0000000000000000000000000000000000000000000000000000000008152600401611baf90612f0b565b60405180910390fd5b80600560008573ffffffffffffffffffffffffffffffffffffffff1673ffffffffffffffffffffffffffffffffffffffff16815260200190815260200160002060008473ffffffffffffffffffffffffffffffffffffffff1673ffffffffffffffffffffffffffffffffffffffff16815260200190815260200160002060006101000a81548160ff0219169083151502179055508173ffffffffffffffffffffffffffffffffffffffff168373ffffffffffffffffffffffffffffffffffffffff167f17307eab39ab6107e8899845ad3d59bd9653f200f220920489ca2b5937696c3183604051611ca99190612d97565b60405180910390a3505050565b611cc184848461179e565b611ccd84848484611e99565b611d0c576040517f08c379a0000000000000000000000000000000000000000000000000000000008152600401611d0390612e6b565b60405180910390fd5b50505050565b606060405180602001604052806000815250905090565b6060611d3482611478565b6000611d3e611d12565b90506000815111611d5e5760405180602001604052806000815250611d89565b80611d6884612030565b604051602001611d79929190612cb3565b6040516020818303038152906040525b915050919050565b60008073ffffffffffffffffffffffffffffffffffffffff166002600084815260200190815260200160002060009054906101000a900473ffffffffffffffffffffffffffffffffffffffff1673ffffffffffffffffffffffffffffffffffffffff1614159050919050565b611e17828260405180602001604052806000815250612191565b5050565b611e2482611d91565b611e63576040517f08c379a0000000000000000000000000000000000000000000000000000000008152600401611e5a90612f4b565b60405180910390fd5b80600660008481526020019081526020016000209080519060200190611e8a92919061240b565b505050565b505050565b505050565b6000611eba8473ffffffffffffffffffffffffffffffffffffffff166121ec565b15612023578373ffffffffffffffffffffffffffffffffffffffff1663150b7a02611ee36114c3565b8786866040518563ffffffff1660e01b8152600401611f059493929190612d30565b602060405180830381600087803b158015611f1f57600080fd5b505af1925050508015611f5057506040513d601f19601f82011682018060405250810190611f4d919061282a565b60015b611fd3573d8060008114611f80576040519150601f19603f3d011682016040523d82523d6000602084013e611f85565b606091505b50600081511415611fcb576040517f08c379a0000000000000000000000000000000000000000000000000000000008152600401611fc290612e6b565b60405180910390fd5b805181602001fd5b63150b7a0260e01b7bffffffffffffffffffffffffffffffffffffffffffffffffffffffff1916817bffffffffffffffffffffffffffffffffffffffffffffffffffffffff191614915050612028565b600190505b949350505050565b60606000821415612078576040518060400160405280600181526020017f3000000000000000000000000000000000000000000000000000000000000000815250905061218c565b600082905060005b600082146120aa57808061209390613378565b915050600a826120a39190613199565b9150612080565b60008167ffffffffffffffff8111156120c6576120c56134dd565b5b6040519080825280601f01601f1916602001820160405280156120f85781602001600182028036833780820191505090505b5090505b600085146121855760018261211191906131ca565b9150600a8561212091906133c1565b603061212c9190613143565b60f81b818381518110612142576121416134ae565b5b60200101907effffffffffffffffffffffffffffffffffffffffffffffffffffffffffffff1916908160001a905350600a8561217e9190613199565b94506120fc565b8093505050505b919050565b61219b838361220f565b6121a86000848484611e99565b6121e7576040517f08c379a00000000000000000000000000000000000000000000000000000000081526004016121de90612e6b565b60405180910390fd5b505050565b6000808273ffffffffffffffffffffffffffffffffffffffff163b119050919050565b600073ffffffffffffffffffffffffffffffffffffffff168273ffffffffffffffffffffffffffffffffffffffff16141561227f576040517f08c379a000000000000000000000000000000000000000000000000000000000815260040161227690612f8b565b60405180910390fd5b61228881611d91565b156122c8576040517f08c379a00000000000000000000000000000000000000000000000000000000081526004016122bf90612ecb565b60405180910390fd5b6122d460008383611e8f565b6001600360008473ffffffffffffffffffffffffffffffffffffffff1673ffffffffffffffffffffffffffffffffffffffff16815260200190815260200160002060008282546123249190613143565b92505081905550816002600083815260200190815260200160002060006101000a81548173ffffffffffffffffffffffffffffffffffffffff021916908373ffffffffffffffffffffffffffffffffffffffff160217905550808273ffffffffffffffffffffffffffffffffffffffff16600073ffffffffffffffffffffffffffffffffffffffff167fddf252ad1be2c89b69c2b068fc378daa952ba7f163c4a11628f55a4df523b3ef60405160405180910390a46123e560008383611e94565b5050565b6040518060600160405280600390602082028036833780820191505090505090565b82805461241790613315565b90600052602060002090601f0160209004810192826124395760008555612480565b82601f1061245257805160ff1916838001178555612480565b82800160010185558215612480579182015b8281111561247f578251825591602001919060010190612464565b5b50905061248d9190612491565b5090565b5b808211156124aa576000816000905550600101612492565b5090565b60006124c16124bc8461306b565b613046565b905080838252602082019050828560208602820111156124e4576124e3613511565b5b60005b8581101561251457816124fa8882612610565b8452602084019350602083019250506001810190506124e7565b5050509392505050565b600061253161252c84613097565b613046565b90508281526020810184848401111561254d5761254c613516565b5b6125588482856132d3565b509392505050565b60008135905061256f816138e1565b92915050565b600082601f83011261258a5761258961350c565b5b813561259a8482602086016124ae565b91505092915050565b6000813590506125b2816138f8565b92915050565b6000813590506125c78161390f565b92915050565b6000815190506125dc8161390f565b92915050565b600082601f8301126125f7576125f661350c565b5b813561260784826020860161251e565b91505092915050565b60008135905061261f81613926565b92915050565b60008151905061263481613926565b92915050565b6000602082840312156126505761264f613520565b5b600061265e84828501612560565b91505092915050565b6000806040838503121561267e5761267d613520565b5b600061268c85828601612560565b925050602061269d85828601612560565b9150509250929050565b6000806000606084860312156126c0576126bf613520565b5b60006126ce86828701612560565b93505060206126df86828701612560565b92505060406126f086828701612610565b9150509250925092565b6000806000806080858703121561271457612713613520565b5b600061272287828801612560565b945050602061273387828801612560565b935050604061274487828801612610565b925050606085013567ffffffffffffffff8111156127655761276461351b565b5b612771878288016125e2565b91505092959194509250565b6000806040838503121561279457612793613520565b5b60006127a285828601612560565b92505060206127b3858286016125a3565b9150509250929050565b600080604083850312156127d4576127d3613520565b5b60006127e285828601612560565b92505060206127f385828601612610565b9150509250929050565b60006020828403121561281357612812613520565b5b6000612821848285016125b8565b91505092915050565b6000602082840312156128405761283f613520565b5b600061284e848285016125cd565b91505092915050565b60006020828403121561286d5761286c613520565b5b600061287b84828501612610565b91505092915050565b60006020828403121561289a57612899613520565b5b60006128a884828501612625565b91505092915050565b600080604083850312156128c8576128c7613520565b5b60006128d685828601612610565b925050602083013567ffffffffffffffff8111156128f7576128f661351b565b5b61290385828601612575565b9150509250929050565b60006129198383612c77565b60208301905092915050565b61292e816131fe565b82525050565b61293d816130d2565b6129478184613100565b9250612952826130c8565b8060005b8381101561298357815161296a878261290d565b9650612975836130f3565b925050600181019050612956565b505050505050565b61299481613210565b82525050565b6129a38161321c565b82525050565b60006129b4826130dd565b6129be818561310b565b93506129ce8185602086016132e2565b6129d781613525565b840191505092915050565b6129eb816132c1565b82525050565b60006129fc826130e8565b612a068185613127565b9350612a168185602086016132e2565b612a1f81613525565b840191505092915050565b6000612a35826130e8565b612a3f8185613138565b9350612a4f8185602086016132e2565b80840191505092915050565b6000612a68603283613127565b9150612a7382613536565b604082019050919050565b6000612a8b602683613127565b9150612a9682613585565b604082019050919050565b6000612aae602583613127565b9150612ab9826135d4565b604082019050919050565b6000612ad1601c83613127565b9150612adc82613623565b602082019050919050565b6000612af4602483613127565b9150612aff8261364c565b604082019050919050565b6000612b17601983613127565b9150612b228261369b565b602082019050919050565b6000612b3a602983613127565b9150612b45826136c4565b604082019050919050565b6000612b5d602e83613127565b9150612b6882613713565b604082019050919050565b6000612b80603e83613127565b9150612b8b82613762565b604082019050919050565b6000612ba3602083613127565b9150612bae826137b1565b602082019050919050565b6000612bc6602083613127565b9150612bd1826137da565b602082019050919050565b6000612be9601883613127565b9150612bf482613803565b602082019050919050565b6000612c0c602183613127565b9150612c178261382c565b604082019050919050565b6000612c2f60008361311c565b9150612c3a8261387b565b600082019050919050565b6000612c52602e83613127565b9150612c5d8261387e565b604082019050919050565b612c7181613265565b82525050565b612c8081613293565b82525050565b612c8f81613293565b82525050565b612c9e8161329d565b82525050565b612cad816132ad565b82525050565b6000612cbf8285612a2a565b9150612ccb8284612a2a565b91508190509392505050565b6000612ce282612c22565b9150819050919050565b6000602082019050612d016000830184612925565b92915050565b6000604082019050612d1c6000830185612925565b612d296020830184612925565b9392505050565b6000608082019050612d456000830187612925565b612d526020830186612925565b612d5f6040830185612c86565b8181036060830152612d7181846129a9565b905095945050505050565b6000606082019050612d916000830184612934565b92915050565b6000602082019050612dac600083018461298b565b92915050565b600060a082019050612dc7600083018861299a565b612dd46020830187612ca4565b612de16040830186612c68565b612dee6060830185612c95565b612dfb6080830184612c95565b9695505050505050565b6000602082019050612e1a60008301846129e2565b92915050565b6000604082019050612e3560008301856129e2565b612e426020830184612925565b9392505050565b60006020820190508181036000830152612e6381846129f1565b905092915050565b60006020820190508181036000830152612e8481612a5b565b9050919050565b60006020820190508181036000830152612ea481612a7e565b9050919050565b60006020820190508181036000830152612ec481612aa1565b9050919050565b60006020820190508181036000830152612ee481612ac4565b9050919050565b60006020820190508181036000830152612f0481612ae7565b9050919050565b60006020820190508181036000830152612f2481612b0a565b9050919050565b60006020820190508181036000830152612f4481612b2d565b9050919050565b60006020820190508181036000830152612f6481612b50565b9050919050565b60006020820190508181036000830152612f8481612b73565b9050919050565b60006020820190508181036000830152612fa481612b96565b9050919050565b60006020820190508181036000830152612fc481612bb9565b9050919050565b60006020820190508181036000830152612fe481612bdc565b9050919050565b6000602082019050818103600083015261300481612bff565b9050919050565b6000602082019050818103600083015261302481612c45565b9050919050565b60006020820190506130406000830184612c86565b92915050565b6000613050613061565b905061305c8282613347565b919050565b6000604051905090565b600067ffffffffffffffff821115613086576130856134dd565b5b602082029050602081019050919050565b600067ffffffffffffffff8211156130b2576130b16134dd565b5b6130bb82613525565b9050602081019050919050565b6000819050919050565b600060039050919050565b600081519050919050565b600081519050919050565b6000602082019050919050565b600081905092915050565b600082825260208201905092915050565b600081905092915050565b600082825260208201905092915050565b600081905092915050565b600061314e82613293565b915061315983613293565b9250827fffffffffffffffffffffffffffffffffffffffffffffffffffffffffffffffff0382111561318e5761318d6133f2565b5b828201905092915050565b60006131a482613293565b91506131af83613293565b9250826131bf576131be613421565b5b828204905092915050565b60006131d582613293565b91506131e083613293565b9250828210156131f3576131f26133f2565b5b828203905092915050565b600061320982613273565b9050919050565b60008115159050919050565b6000819050919050565b60007fffffffff0000000000000000000000000000000000000000000000000000000082169050919050565b6000819050613260826138cd565b919050565b600061ffff82169050919050565b600073ffffffffffffffffffffffffffffffffffffffff82169050919050565b6000819050919050565b600063ffffffff82169050919050565b600067ffffffffffffffff82169050919050565b60006132cc82613252565b9050919050565b82818337600083830152505050565b60005b838110156133005780820151818401526020810190506132e5565b8381111561330f576000848401525b50505050565b6000600282049050600182168061332d57607f821691505b602082108114156133415761334061347f565b5b50919050565b61335082613525565b810181811067ffffffffffffffff8211171561336f5761336e6134dd565b5b80604052505050565b600061338382613293565b91507fffffffffffffffffffffffffffffffffffffffffffffffffffffffffffffffff8214156133b6576133b56133f2565b5b600182019050919050565b60006133cc82613293565b91506133d783613293565b9250826133e7576133e6613421565b5b828206905092915050565b7f4e487b7100000000000000000000000000000000000000000000000000000000600052601160045260246000fd5b7f4e487b7100000000000000000000000000000000000000000000000000000000600052601260045260246000fd5b7f4e487b7100000000000000000000000000000000000000000000000000000000600052602160045260246000fd5b7f4e487b7100000000000000000000000000000000000000000000000000000000600052602260045260246000fd5b7f4e487b7100000000000000000000000000000000000000000000000000000000600052603260045260246000fd5b7f4e487b7100000000000000000000000000000000000000000000000000000000600052604160045260246000fd5b600080fd5b600080fd5b600080fd5b600080fd5b600080fd5b6000601f19601f8301169050919050565b7f4552433732313a207472616e7366657220746f206e6f6e20455243373231526560008201527f63656976657220696d706c656d656e7465720000000000000000000000000000602082015250565b7f4f776e61626c653a206e6577206f776e657220697320746865207a65726f206160008201527f6464726573730000000000000000000000000000000000000000000000000000602082015250565b7f4552433732313a207472616e736665722066726f6d20696e636f72726563742060008201527f6f776e6572000000000000000000000000000000000000000000000000000000602082015250565b7f4552433732313a20746f6b656e20616c7265616479206d696e74656400000000600082015250565b7f4552433732313a207472616e7366657220746f20746865207a65726f2061646460008201527f7265737300000000000000000000000000000000000000000000000000000000602082015250565b7f4552433732313a20617070726f766520746f2063616c6c657200000000000000600082015250565b7f4552433732313a2061646472657373207a65726f206973206e6f74206120766160008201527f6c6964206f776e65720000000000000000000000000000000000000000000000602082015250565b7f45524337323155524953746f726167653a2055524920736574206f66206e6f6e60008201527f6578697374656e7420746f6b656e000000000000000000000000000000000000602082015250565b7f4552433732313a20617070726f76652063616c6c6572206973206e6f7420746f60008201527f6b656e206f776e6572206e6f7220617070726f76656420666f7220616c6c0000602082015250565b7f4552433732313a206d696e7420746f20746865207a65726f2061646472657373600082015250565b7f4f776e61626c653a2063616c6c6572206973206e6f7420746865206f776e6572600082015250565b7f4552433732313a20696e76616c696420746f6b656e2049440000000000000000600082015250565b7f4552433732313a20617070726f76616c20746f2063757272656e74206f776e6560008201527f7200000000000000000000000000000000000000000000000000000000000000602082015250565b50565b7f4552433732313a2063616c6c6572206973206e6f7420746f6b656e206f776e6560008201527f72206e6f7220617070726f766564000000000000000000000000000000000000602082015250565b600381106138de576138dd613450565b5b50565b6138ea816131fe565b81146138f557600080fd5b50565b61390181613210565b811461390c57600080fd5b50565b61391881613226565b811461392357600080fd5b50565b61392f81613293565b811461393a57600080fd5b5056fea264697066735822122015fcc778d20b877511cbbe3aa6865a4cd43fb9aa1f2727257a1915e2815c808564736f6c63430008070033",
  "linkReferences": {},
  "deployedLinkReferences": {}
}